{
  "_format": "hh-sol-artifact-1",
  "contractName": "ZWToken",
  "sourceName": "contracts/ZWToken.sol",
  "abi": [
    {
      "inputs": [
        {
          "internalType": "string",
          "name": "name_",
          "type": "string"
        },
        {
          "internalType": "string",
          "name": "symbol_",
          "type": "string"
        },
        {
          "internalType": "address",
          "name": "underlying_",
          "type": "address"
        },
        {
          "internalType": "address",
          "name": "verifier_",
          "type": "address"
        }
      ],
      "stateMutability": "nonpayable",
      "type": "constructor"
    },
    {
      "inputs": [
        {
          "internalType": "address",
          "name": "spender",
          "type": "address"
        },
        {
          "internalType": "uint256",
          "name": "allowance",
          "type": "uint256"
        },
        {
          "internalType": "uint256",
          "name": "needed",
          "type": "uint256"
        }
      ],
      "name": "ERC20InsufficientAllowance",
      "type": "error"
    },
    {
      "inputs": [
        {
          "internalType": "address",
          "name": "sender",
          "type": "address"
        },
        {
          "internalType": "uint256",
          "name": "balance",
          "type": "uint256"
        },
        {
          "internalType": "uint256",
          "name": "needed",
          "type": "uint256"
        }
      ],
      "name": "ERC20InsufficientBalance",
      "type": "error"
    },
    {
      "inputs": [
        {
          "internalType": "address",
          "name": "approver",
          "type": "address"
        }
      ],
      "name": "ERC20InvalidApprover",
      "type": "error"
    },
    {
      "inputs": [
        {
          "internalType": "address",
          "name": "receiver",
          "type": "address"
        }
      ],
      "name": "ERC20InvalidReceiver",
      "type": "error"
    },
    {
      "inputs": [
        {
          "internalType": "address",
          "name": "sender",
          "type": "address"
        }
      ],
      "name": "ERC20InvalidSender",
      "type": "error"
    },
    {
      "inputs": [
        {
          "internalType": "address",
          "name": "spender",
          "type": "address"
        }
      ],
      "name": "ERC20InvalidSpender",
      "type": "error"
    },
    {
      "inputs": [],
      "name": "InvalidDepth",
      "type": "error"
    },
    {
      "inputs": [],
      "name": "InvalidProof",
      "type": "error"
    },
    {
      "inputs": [],
      "name": "InvalidRoot",
      "type": "error"
    },
    {
      "inputs": [],
      "name": "NullifierUsed",
      "type": "error"
    },
    {
      "inputs": [
        {
          "internalType": "address",
          "name": "token",
          "type": "address"
        }
      ],
      "name": "SafeERC20FailedOperation",
      "type": "error"
    },
    {
      "inputs": [],
      "name": "TreeFull",
      "type": "error"
    },
    {
      "anonymous": false,
      "inputs": [
        {
          "indexed": true,
          "internalType": "address",
          "name": "owner",
          "type": "address"
        },
        {
          "indexed": true,
          "internalType": "address",
          "name": "spender",
          "type": "address"
        },
        {
          "indexed": false,
          "internalType": "uint256",
          "name": "value",
          "type": "uint256"
        }
      ],
      "name": "Approval",
      "type": "event"
    },
    {
      "anonymous": false,
      "inputs": [
        {
          "indexed": true,
          "internalType": "bytes32",
          "name": "nullifier",
          "type": "bytes32"
        },
        {
          "indexed": true,
          "internalType": "address",
          "name": "to",
          "type": "address"
        },
        {
          "indexed": false,
          "internalType": "uint256",
          "name": "amount",
          "type": "uint256"
        }
      ],
      "name": "Claimed",
      "type": "event"
    },
    {
      "anonymous": false,
      "inputs": [
        {
          "indexed": true,
          "internalType": "bytes32",
          "name": "commitment",
          "type": "bytes32"
        },
        {
          "indexed": false,
          "internalType": "uint256",
          "name": "index",
          "type": "uint256"
        },
        {
          "indexed": true,
          "internalType": "address",
          "name": "recipient",
          "type": "address"
        },
        {
          "indexed": false,
          "internalType": "uint256",
          "name": "amount",
          "type": "uint256"
        }
      ],
      "name": "CommitmentAdded",
      "type": "event"
    },
    {
      "anonymous": false,
      "inputs": [
        {
          "indexed": true,
          "internalType": "address",
          "name": "from",
          "type": "address"
        },
        {
          "indexed": false,
          "internalType": "uint256",
          "name": "amount",
          "type": "uint256"
        }
      ],
      "name": "Deposited",
      "type": "event"
    },
    {
      "anonymous": false,
      "inputs": [
        {
          "indexed": true,
          "internalType": "uint256",
          "name": "index",
          "type": "uint256"
        },
        {
          "indexed": true,
          "internalType": "bytes32",
          "name": "leaf",
          "type": "bytes32"
        }
      ],
      "name": "LeafInserted",
      "type": "event"
    },
    {
      "anonymous": false,
      "inputs": [
        {
          "indexed": true,
          "internalType": "bytes32",
          "name": "oldRoot",
          "type": "bytes32"
        },
        {
          "indexed": true,
          "internalType": "bytes32",
          "name": "newRoot",
          "type": "bytes32"
        }
      ],
      "name": "RootUpdated",
      "type": "event"
    },
    {
      "anonymous": false,
      "inputs": [
        {
          "indexed": true,
          "internalType": "address",
          "name": "from",
          "type": "address"
        },
        {
          "indexed": true,
          "internalType": "address",
          "name": "to",
          "type": "address"
        },
        {
          "indexed": false,
          "internalType": "uint256",
          "name": "value",
          "type": "uint256"
        }
      ],
      "name": "Transfer",
      "type": "event"
    },
    {
      "inputs": [],
      "name": "MAX_LEAVES",
      "outputs": [
        {
          "internalType": "uint256",
          "name": "",
          "type": "uint256"
        }
      ],
      "stateMutability": "view",
      "type": "function"
    },
    {
      "inputs": [],
      "name": "TREE_DEPTH",
      "outputs": [
        {
          "internalType": "uint256",
          "name": "",
          "type": "uint256"
        }
      ],
      "stateMutability": "view",
      "type": "function"
    },
    {
      "inputs": [
        {
          "internalType": "address",
          "name": "owner",
          "type": "address"
        },
        {
          "internalType": "address",
          "name": "spender",
          "type": "address"
        }
      ],
      "name": "allowance",
      "outputs": [
        {
          "internalType": "uint256",
          "name": "",
          "type": "uint256"
        }
      ],
      "stateMutability": "view",
      "type": "function"
    },
    {
      "inputs": [
        {
          "internalType": "address",
          "name": "spender",
          "type": "address"
        },
        {
          "internalType": "uint256",
          "name": "value",
          "type": "uint256"
        }
      ],
      "name": "approve",
      "outputs": [
        {
          "internalType": "bool",
          "name": "",
          "type": "bool"
        }
      ],
      "stateMutability": "nonpayable",
      "type": "function"
    },
    {
      "inputs": [
        {
          "internalType": "address",
          "name": "account",
          "type": "address"
        }
      ],
      "name": "balanceOf",
      "outputs": [
        {
          "internalType": "uint256",
          "name": "",
          "type": "uint256"
        }
      ],
      "stateMutability": "view",
      "type": "function"
    },
    {
      "inputs": [
        {
          "internalType": "uint256[2]",
          "name": "a",
          "type": "uint256[2]"
        },
        {
          "internalType": "uint256[2][2]",
          "name": "b",
          "type": "uint256[2][2]"
        },
        {
          "internalType": "uint256[2]",
          "name": "c",
          "type": "uint256[2]"
        },
        {
          "internalType": "bytes32",
          "name": "root_",
          "type": "bytes32"
        },
        {
          "internalType": "bytes32",
          "name": "nullifier",
          "type": "bytes32"
        },
        {
          "internalType": "address",
          "name": "to",
          "type": "address"
        },
        {
          "internalType": "uint256",
          "name": "amount",
          "type": "uint256"
        }
      ],
      "name": "claim",
      "outputs": [],
      "stateMutability": "nonpayable",
      "type": "function"
    },
    {
      "inputs": [
        {
          "internalType": "bytes32",
          "name": "",
          "type": "bytes32"
        }
      ],
      "name": "commitmentToIndex",
      "outputs": [
        {
          "internalType": "uint256",
          "name": "",
          "type": "uint256"
        }
      ],
      "stateMutability": "view",
      "type": "function"
    },
    {
      "inputs": [],
      "name": "decimals",
      "outputs": [
        {
          "internalType": "uint8",
          "name": "",
          "type": "uint8"
        }
      ],
      "stateMutability": "view",
      "type": "function"
    },
    {
      "inputs": [
        {
          "internalType": "uint256",
          "name": "amount",
          "type": "uint256"
        }
      ],
      "name": "deposit",
      "outputs": [],
      "stateMutability": "nonpayable",
      "type": "function"
    },
    {
      "inputs": [],
      "name": "getCommitmentCount",
      "outputs": [
        {
          "internalType": "uint256",
          "name": "",
          "type": "uint256"
        }
      ],
      "stateMutability": "view",
      "type": "function"
    },
    {
      "inputs": [
        {
          "internalType": "uint256",
          "name": "level",
          "type": "uint256"
        }
      ],
      "name": "getFilledSubtree",
      "outputs": [
        {
          "internalType": "bytes32",
          "name": "",
          "type": "bytes32"
        }
      ],
      "stateMutability": "view",
      "type": "function"
    },
    {
      "inputs": [],
      "name": "getLeafCount",
      "outputs": [
        {
          "internalType": "uint256",
          "name": "",
          "type": "uint256"
        }
      ],
      "stateMutability": "view",
      "type": "function"
    },
    {
      "inputs": [
        {
          "internalType": "uint256",
          "name": "level",
          "type": "uint256"
        }
      ],
      "name": "getZeroHash",
      "outputs": [
        {
          "internalType": "bytes32",
          "name": "",
          "type": "bytes32"
        }
      ],
      "stateMutability": "view",
      "type": "function"
    },
    {
      "inputs": [
        {
          "internalType": "address",
          "name": "",
          "type": "address"
        }
      ],
      "name": "hasFirstReceiptRecorded",
      "outputs": [
        {
          "internalType": "bool",
          "name": "",
          "type": "bool"
        }
      ],
      "stateMutability": "view",
      "type": "function"
    },
    {
      "inputs": [],
      "name": "isFull",
      "outputs": [
        {
          "internalType": "bool",
          "name": "",
          "type": "bool"
        }
      ],
      "stateMutability": "view",
      "type": "function"
    },
    {
      "inputs": [
        {
          "internalType": "bytes32",
          "name": "",
          "type": "bytes32"
        }
      ],
      "name": "isKnownRoot",
      "outputs": [
        {
          "internalType": "bool",
          "name": "",
          "type": "bool"
        }
      ],
      "stateMutability": "view",
      "type": "function"
    },
    {
      "inputs": [],
      "name": "name",
      "outputs": [
        {
          "internalType": "string",
          "name": "",
          "type": "string"
        }
      ],
      "stateMutability": "view",
      "type": "function"
    },
    {
      "inputs": [],
      "name": "nextIndex",
      "outputs": [
        {
          "internalType": "uint256",
          "name": "",
          "type": "uint256"
        }
      ],
      "stateMutability": "view",
      "type": "function"
    },
    {
      "inputs": [
        {
          "internalType": "bytes32",
          "name": "",
          "type": "bytes32"
        }
      ],
      "name": "nullifierUsed",
      "outputs": [
        {
          "internalType": "bool",
          "name": "",
          "type": "bool"
        }
      ],
      "stateMutability": "view",
      "type": "function"
    },
    {
      "inputs": [],
      "name": "root",
      "outputs": [
        {
          "internalType": "bytes32",
          "name": "",
          "type": "bytes32"
        }
      ],
      "stateMutability": "view",
      "type": "function"
    },
    {
      "inputs": [],
      "name": "symbol",
      "outputs": [
        {
          "internalType": "string",
          "name": "",
          "type": "string"
        }
      ],
      "stateMutability": "view",
      "type": "function"
    },
    {
      "inputs": [],
      "name": "totalSupply",
      "outputs": [
        {
          "internalType": "uint256",
          "name": "",
          "type": "uint256"
        }
      ],
      "stateMutability": "view",
      "type": "function"
    },
    {
      "inputs": [
        {
          "internalType": "address",
          "name": "to",
          "type": "address"
        },
        {
          "internalType": "uint256",
          "name": "value",
          "type": "uint256"
        }
      ],
      "name": "transfer",
      "outputs": [
        {
          "internalType": "bool",
          "name": "",
          "type": "bool"
        }
      ],
      "stateMutability": "nonpayable",
      "type": "function"
    },
    {
      "inputs": [
        {
          "internalType": "address",
          "name": "from",
          "type": "address"
        },
        {
          "internalType": "address",
          "name": "to",
          "type": "address"
        },
        {
          "internalType": "uint256",
          "name": "value",
          "type": "uint256"
        }
      ],
      "name": "transferFrom",
      "outputs": [
        {
          "internalType": "bool",
          "name": "",
          "type": "bool"
        }
      ],
      "stateMutability": "nonpayable",
      "type": "function"
    },
    {
      "inputs": [],
      "name": "underlying",
      "outputs": [
        {
          "internalType": "contract IERC20",
          "name": "",
          "type": "address"
        }
      ],
      "stateMutability": "view",
      "type": "function"
    },
    {
      "inputs": [],
      "name": "verifier",
      "outputs": [
        {
          "internalType": "contract ISnarkVerifier",
          "name": "",
          "type": "address"
        }
      ],
      "stateMutability": "view",
      "type": "function"
    },
    {
      "inputs": [
        {
          "internalType": "uint256",
          "name": "amount",
          "type": "uint256"
        }
      ],
      "name": "withdraw",
      "outputs": [],
      "stateMutability": "nonpayable",
      "type": "function"
    }
  ],
  "bytecode": "0x6101006040523480156200001257600080fd5b5060405162003813380380620038138339818101604052810190620000389190620006fc565b6014848481600390816200004d9190620009f7565b5080600490816200005f9190620009f7565b50505060008111801562000074575060208111155b620000b6576040517f08c379a0000000000000000000000000000000000000000000000000000000008152600401620000ad9062000b3f565b60405180910390fd5b8060808181525050806002620000cd919062000ce4565b60a081815250508067ffffffffffffffff811115620000f157620000f062000533565b5b604051908082528060200260200182016040528015620001205781602001602082028036833780820191505090505b50600790805190602001906200013892919062000493565b508067ffffffffffffffff81111562000156576200015562000533565b5b604051908082528060200260200182016040528015620001855781602001602082028036833780820191505090505b50600890805190602001906200019d92919062000493565b5060008060001b9050806007600081548110620001bf57620001be62000d35565b5b90600052602060002001819055506000600190505b828110156200023357620001f58260001c8360001c620003f060201b60201c565b915081600782815481106200020f576200020e62000d35565b5b906000526020600020018190555080806200022a9062000d64565b915050620001d4565b50600760018362000245919062000db1565b8154811062000259576200025862000d35565b5b9060005260206000200154600581905550600160096000600554815260200190815260200160002060006101000a81548160ff0219169083151502179055505050600073ffffffffffffffffffffffffffffffffffffffff168273ffffffffffffffffffffffffffffffffffffffff16036200030c576040517f08c379a0000000000000000000000000000000000000000000000000000000008152600401620003039062000e3c565b60405180910390fd5b600073ffffffffffffffffffffffffffffffffffffffff168173ffffffffffffffffffffffffffffffffffffffff16036200037e576040517f08c379a0000000000000000000000000000000000000000000000000000000008152600401620003759062000eae565b60405180910390fd5b8173ffffffffffffffffffffffffffffffffffffffff1660c08173ffffffffffffffffffffffffffffffffffffffff16815250508073ffffffffffffffffffffffffffffffffffffffff1660e08173ffffffffffffffffffffffffffffffffffffffff1681525050505050506200100b565b600080604051806040016040528085815260200184815250905073__$75f79a42d9bcbdbb69ad79ebd80f556f39$__63561558fe826040518263ffffffff1660e01b815260040162000443919062000f8b565b602060405180830381865af415801562000461573d6000803e3d6000fd5b505050506040513d601f19601f8201168201806040525081019062000487919062000fd9565b60001b91505092915050565b828054828255906000526020600020908101928215620004d2579160200282015b82811115620004d1578251825591602001919060010190620004b4565b5b509050620004e19190620004e5565b5090565b5b8082111562000500576000816000905550600101620004e6565b5090565b6000604051905090565b600080fd5b600080fd5b600080fd5b600080fd5b6000601f19601f8301169050919050565b7f4e487b7100000000000000000000000000000000000000000000000000000000600052604160045260246000fd5b6200056d8262000522565b810181811067ffffffffffffffff821117156200058f576200058e62000533565b5b80604052505050565b6000620005a462000504565b9050620005b2828262000562565b919050565b600067ffffffffffffffff821115620005d557620005d462000533565b5b620005e08262000522565b9050602081019050919050565b60005b838110156200060d578082015181840152602081019050620005f0565b60008484015250505050565b6000620006306200062a84620005b7565b62000598565b9050828152602081018484840111156200064f576200064e6200051d565b5b6200065c848285620005ed565b509392505050565b600082601f8301126200067c576200067b62000518565b5b81516200068e84826020860162000619565b91505092915050565b600073ffffffffffffffffffffffffffffffffffffffff82169050919050565b6000620006c48262000697565b9050919050565b620006d681620006b7565b8114620006e257600080fd5b50565b600081519050620006f681620006cb565b92915050565b600080600080608085870312156200071957620007186200050e565b5b600085015167ffffffffffffffff8111156200073a576200073962000513565b5b620007488782880162000664565b945050602085015167ffffffffffffffff8111156200076c576200076b62000513565b5b6200077a8782880162000664565b93505060406200078d87828801620006e5565b9250506060620007a087828801620006e5565b91505092959194509250565b600081519050919050565b7f4e487b7100000000000000000000000000000000000000000000000000000000600052602260045260246000fd5b60006002820490506001821680620007ff57607f821691505b602082108103620008155762000814620007b7565b5b50919050565b60008190508160005260206000209050919050565b60006020601f8301049050919050565b600082821b905092915050565b6000600883026200087f7fffffffffffffffffffffffffffffffffffffffffffffffffffffffffffffffff8262000840565b6200088b868362000840565b95508019841693508086168417925050509392505050565b6000819050919050565b6000819050919050565b6000620008d8620008d2620008cc84620008a3565b620008ad565b620008a3565b9050919050565b6000819050919050565b620008f483620008b7565b6200090c6200090382620008df565b8484546200084d565b825550505050565b600090565b6200092362000914565b62000930818484620008e9565b505050565b5b8181101562000958576200094c60008262000919565b60018101905062000936565b5050565b601f821115620009a75762000971816200081b565b6200097c8462000830565b810160208510156200098c578190505b620009a46200099b8562000830565b83018262000935565b50505b505050565b600082821c905092915050565b6000620009cc60001984600802620009ac565b1980831691505092915050565b6000620009e78383620009b9565b9150826002028217905092915050565b62000a0282620007ac565b67ffffffffffffffff81111562000a1e5762000a1d62000533565b5b62000a2a8254620007e6565b62000a378282856200095c565b600060209050601f83116001811462000a6f576000841562000a5a578287015190505b62000a668582620009d9565b86555062000ad6565b601f19841662000a7f866200081b565b60005b8281101562000aa95784890151825560018201915060208501945060208101905062000a82565b8683101562000ac9578489015162000ac5601f891682620009b9565b8355505b6001600288020188555050505b505050505050565b600082825260208201905092915050565b7f496e76616c696420646570746800000000000000000000000000000000000000600082015250565b600062000b27600d8362000ade565b915062000b348262000aef565b602082019050919050565b6000602082019050818103600083015262000b5a8162000b18565b9050919050565b7f4e487b7100000000000000000000000000000000000000000000000000000000600052601160045260246000fd5b60008160011c9050919050565b6000808291508390505b600185111562000bef5780860481111562000bc75762000bc662000b61565b5b600185161562000bd75780820291505b808102905062000be78562000b90565b945062000ba7565b94509492505050565b60008262000c0a576001905062000cdd565b8162000c1a576000905062000cdd565b816001811462000c33576002811462000c3e5762000c74565b600191505062000cdd565b60ff84111562000c535762000c5262000b61565b5b8360020a91508482111562000c6d5762000c6c62000b61565b5b5062000cdd565b5060208310610133831016604e8410600b841016171562000cae5782820a90508381111562000ca85762000ca762000b61565b5b62000cdd565b62000cbd848484600162000b9d565b9250905081840481111562000cd75762000cd662000b61565b5b81810290505b9392505050565b600062000cf182620008a3565b915062000cfe83620008a3565b925062000d2d7fffffffffffffffffffffffffffffffffffffffffffffffffffffffffffffffff848462000bf8565b905092915050565b7f4e487b7100000000000000000000000000000000000000000000000000000000600052603260045260246000fd5b600062000d7182620008a3565b91507fffffffffffffffffffffffffffffffffffffffffffffffffffffffffffffffff820362000da65762000da562000b61565b5b600182019050919050565b600062000dbe82620008a3565b915062000dcb83620008a3565b925082820390508181111562000de65762000de562000b61565b5b92915050565b7f496e76616c696420756e6465726c79696e670000000000000000000000000000600082015250565b600062000e2460128362000ade565b915062000e318262000dec565b602082019050919050565b6000602082019050818103600083015262000e578162000e15565b9050919050565b7f496e76616c696420766572696669657200000000000000000000000000000000600082015250565b600062000e9660108362000ade565b915062000ea38262000e5e565b602082019050919050565b6000602082019050818103600083015262000ec98162000e87565b9050919050565b600060029050919050565b600081905092915050565b6000819050919050565b62000efb81620008a3565b82525050565b600062000f0f838362000ef0565b60208301905092915050565b6000602082019050919050565b62000f338162000ed0565b62000f3f818462000edb565b925062000f4c8262000ee6565b8060005b8381101562000f8357815162000f67878262000f01565b965062000f748362000f1b565b92505060018101905062000f50565b505050505050565b600060408201905062000fa2600083018462000f28565b92915050565b62000fb381620008a3565b811462000fbf57600080fd5b50565b60008151905062000fd38162000fa8565b92915050565b60006020828403121562000ff25762000ff16200050e565b5b6000620010028482850162000fc2565b91505092915050565b60805160a05160c05160e0516127966200107d600039600081816106ac01526109dc015260008181610722015281816108600152610c4901526000818161062c01528181610ced015261170801526000818161079801528181610d2401528181610e39015261178601526127966000f3fe608060405234801561001057600080fd5b50600436106101a95760003560e01c80636f307dc3116100f9578063babd3d9a11610097578063dd62ed3e11610071578063dd62ed3e1461050e578063ebf0c7171461053e578063f16505361461055c578063fc7e9c6f1461057a576101a9565b8063babd3d9a146104a2578063d3ea6125146104c0578063d5232283146104de576101a9565b80638cc3dc48116100d35780638cc3dc481461041c57806395d89b4114610438578063a9059cbb14610456578063b6b55f2514610486576101a9565b80636f307dc31461039e57806370a08231146103bc5780637ecf686d146103ec576101a9565b80632e1a7d4d116101665780635688881f116101405780635688881f146102f05780636132ca791461030e5780636d9833e31461033e5780636e6046801461036e576101a9565b80632e1a7d4d14610286578063313ce567146102a25780634aeaf197146102c0576101a9565b806306fdde03146101ae578063082febf0146101cc578063095ea7b3146101ea57806318160ddd1461021a57806323b872dd146102385780632b7ac3f314610268575b600080fd5b6101b6610598565b6040516101c39190611bc2565b60405180910390f35b6101d461062a565b6040516101e19190611bfd565b60405180910390f35b61020460048036038101906101ff9190611ca7565b61064e565b6040516102119190611d02565b60405180910390f35b610222610671565b60405161022f9190611bfd565b60405180910390f35b610252600480360381019061024d9190611d1d565b61067b565b60405161025f9190611d02565b60405180910390f35b6102706106aa565b60405161027d9190611dcf565b60405180910390f35b6102a0600480360381019061029b9190611dea565b6106ce565b005b6102aa610769565b6040516102b79190611e33565b60405180910390f35b6102da60048036038101906102d59190611e84565b610772565b6040516102e79190611bfd565b60405180910390f35b6102f861078a565b6040516103059190611bfd565b60405180910390f35b61032860048036038101906103239190611dea565b610794565b6040516103359190611ec0565b60405180910390f35b61035860048036038101906103539190611e84565b61081e565b6040516103659190611d02565b60405180910390f35b61038860048036038101906103839190611edb565b61083e565b6040516103959190611d02565b60405180910390f35b6103a661085e565b6040516103b39190611f29565b60405180910390f35b6103d660048036038101906103d19190611edb565b610882565b6040516103e39190611bfd565b60405180910390f35b61040660048036038101906104019190611e84565b6108ca565b6040516104139190611d02565b60405180910390f35b61043660048036038101906104319190611f8d565b6108ea565b005b610440610b49565b60405161044d9190611bc2565b60405180910390f35b610470600480360381019061046b9190611ca7565b610bdb565b60405161047d9190611d02565b60405180910390f35b6104a0600480360381019061049b9190611dea565b610bfe565b005b6104aa610ce9565b6040516104b79190611d02565b60405180910390f35b6104c8610d16565b6040516104d59190611bfd565b60405180910390f35b6104f860048036038101906104f39190611dea565b610d20565b6040516105059190611ec0565b60405180910390f35b61052860048036038101906105239190612034565b610daa565b6040516105359190611bfd565b60405180910390f35b610546610e31565b6040516105539190611ec0565b60405180910390f35b610564610e37565b6040516105719190611bfd565b60405180910390f35b610582610e5b565b60405161058f9190611bfd565b60405180910390f35b6060600380546105a7906120a3565b80601f01602080910402602001604051908101604052809291908181526020018280546105d3906120a3565b80156106205780601f106105f557610100808354040283529160200191610620565b820191906000526020600020905b81548152906001019060200180831161060357829003601f168201915b5050505050905090565b7f000000000000000000000000000000000000000000000000000000000000000081565b600080610659610e61565b9050610666818585610e69565b600191505092915050565b6000600254905090565b600080610686610e61565b9050610693858285610e7b565b61069e858585610f10565b60019150509392505050565b7f000000000000000000000000000000000000000000000000000000000000000081565b60008111610711576040517f08c379a000000000000000000000000000000000000000000000000000000000815260040161070890612120565b60405180910390fd5b61071b3382611004565b61076633827f000000000000000000000000000000000000000000000000000000000000000073ffffffffffffffffffffffffffffffffffffffff166110869092919063ffffffff16565b50565b60006012905090565b600b6020528060005260406000206000915090505481565b6000600654905090565b60007f000000000000000000000000000000000000000000000000000000000000000082106107f8576040517f08c379a00000000000000000000000000000000000000000000000000000000081526004016107ef9061218c565b60405180910390fd5b6008828154811061080c5761080b6121ac565b5b90600052602060002001549050919050565b60096020528060005260406000206000915054906101000a900460ff1681565b600a6020528060005260406000206000915054906101000a900460ff1681565b7f000000000000000000000000000000000000000000000000000000000000000081565b60008060008373ffffffffffffffffffffffffffffffffffffffff1673ffffffffffffffffffffffffffffffffffffffff168152602001908152602001600020549050919050565b600c6020528060005260406000206000915054906101000a900460ff1681565b6009600085815260200190815260200160002060009054906101000a900460ff16610941576040517f504570e300000000000000000000000000000000000000000000000000000000815260040160405180910390fd5b600c600084815260200190815260200160002060009054906101000a900460ff1615610999576040517f9281498500000000000000000000000000000000000000000000000000000000815260040160405180910390fd5b600060405180608001604052808660001c81526020018560001c81526020018473ffffffffffffffffffffffffffffffffffffffff1681526020018381525090507f000000000000000000000000000000000000000000000000000000000000000073ffffffffffffffffffffffffffffffffffffffff16635fe8c13b898989856040518563ffffffff1660e01b8152600401610a39949392919061235e565b602060405180830381865afa158015610a56573d6000803e3d6000fd5b505050506040513d601f19601f82011682018060405250810190610a7a91906123d1565b610ab0576040517f09bde33900000000000000000000000000000000000000000000000000000000815260040160405180910390fd5b6001600c600086815260200190815260200160002060006101000a81548160ff021916908315150217905550610ae68383611105565b610af08383611187565b8273ffffffffffffffffffffffffffffffffffffffff16847f0508a8b4117d9a7b3d8f5895f6413e61b4f9a2df35afbfb41e78d0ecfff1843f84604051610b379190611bfd565b60405180910390a35050505050505050565b606060048054610b58906120a3565b80601f0160208091040260200160405190810160405280929190818152602001828054610b84906120a3565b8015610bd15780601f10610ba657610100808354040283529160200191610bd1565b820191906000526020600020905b815481529060010190602001808311610bb457829003601f168201915b5050505050905090565b600080610be6610e61565b9050610bf3818585610f10565b600191505092915050565b60008111610c41576040517f08c379a0000000000000000000000000000000000000000000000000000000008152600401610c3890612120565b60405180910390fd5b610c8e3330837f000000000000000000000000000000000000000000000000000000000000000073ffffffffffffffffffffffffffffffffffffffff166112dc909392919063ffffffff16565b610c983382611105565b3373ffffffffffffffffffffffffffffffffffffffff167f2da466a7b24304f47e87fa2e1e5a81b9831ce54fec19055ce277ca2f39ba42c482604051610cde9190611bfd565b60405180910390a250565b60007f00000000000000000000000000000000000000000000000000000000000000006006541015905090565b6000600654905090565b60007f00000000000000000000000000000000000000000000000000000000000000008210610d84576040517f08c379a0000000000000000000000000000000000000000000000000000000008152600401610d7b9061218c565b60405180910390fd5b60078281548110610d9857610d976121ac565b5b90600052602060002001549050919050565b6000600160008473ffffffffffffffffffffffffffffffffffffffff1673ffffffffffffffffffffffffffffffffffffffff16815260200190815260200160002060008373ffffffffffffffffffffffffffffffffffffffff1673ffffffffffffffffffffffffffffffffffffffff16815260200190815260200160002054905092915050565b60055481565b7f000000000000000000000000000000000000000000000000000000000000000081565b60065481565b600033905090565b610e76838383600161135e565b505050565b6000610e878484610daa565b90507fffffffffffffffffffffffffffffffffffffffffffffffffffffffffffffffff811015610f0a5781811015610efa578281836040517ffb8f41b2000000000000000000000000000000000000000000000000000000008152600401610ef19392919061240d565b60405180910390fd5b610f098484848403600061135e565b5b50505050565b600073ffffffffffffffffffffffffffffffffffffffff168373ffffffffffffffffffffffffffffffffffffffff1603610f825760006040517f96c6fd1e000000000000000000000000000000000000000000000000000000008152600401610f799190612444565b60405180910390fd5b600073ffffffffffffffffffffffffffffffffffffffff168273ffffffffffffffffffffffffffffffffffffffff1603610ff45760006040517fec442f05000000000000000000000000000000000000000000000000000000008152600401610feb9190612444565b60405180910390fd5b610fff838383611535565b505050565b600073ffffffffffffffffffffffffffffffffffffffff168273ffffffffffffffffffffffffffffffffffffffff16036110765760006040517f96c6fd1e00000000000000000000000000000000000000000000000000000000815260040161106d9190612444565b60405180910390fd5b61108282600083611535565b5050565b611100838473ffffffffffffffffffffffffffffffffffffffff1663a9059cbb85856040516024016110b992919061245f565b604051602081830303815290604052915060e01b6020820180517bffffffffffffffffffffffffffffffffffffffffffffffffffffffff83818316178352505050506115bf565b505050565b600073ffffffffffffffffffffffffffffffffffffffff168273ffffffffffffffffffffffffffffffffffffffff16036111775760006040517fec442f0500000000000000000000000000000000000000000000000000000000815260040161116e9190612444565b60405180910390fd5b61118360008383611535565b5050565b600a60008373ffffffffffffffffffffffffffffffffffffffff1673ffffffffffffffffffffffffffffffffffffffff16815260200190815260200160002060009054906101000a900460ff166112d8576001600a60008473ffffffffffffffffffffffffffffffffffffffff1673ffffffffffffffffffffffffffffffffffffffff16815260200190815260200160002060006101000a81548160ff02191690831515021790555060006112528373ffffffffffffffffffffffffffffffffffffffff1683611661565b9050600654600b600083815260200190815260200160002081905550611277816116ff565b8273ffffffffffffffffffffffffffffffffffffffff16817f14e97be69819c340b0163d00b0bb3494627e19b1261103ac185f6dac2b20f5d060016006546112bf91906124b7565b856040516112ce9291906124eb565b60405180910390a3505b5050565b611358848573ffffffffffffffffffffffffffffffffffffffff166323b872dd86868660405160240161131193929190612514565b604051602081830303815290604052915060e01b6020820180517bffffffffffffffffffffffffffffffffffffffffffffffffffffffff83818316178352505050506115bf565b50505050565b600073ffffffffffffffffffffffffffffffffffffffff168473ffffffffffffffffffffffffffffffffffffffff16036113d05760006040517fe602df050000000000000000000000000000000000000000000000000000000081526004016113c79190612444565b60405180910390fd5b600073ffffffffffffffffffffffffffffffffffffffff168373ffffffffffffffffffffffffffffffffffffffff16036114425760006040517f94280d620000000000000000000000000000000000000000000000000000000081526004016114399190612444565b60405180910390fd5b81600160008673ffffffffffffffffffffffffffffffffffffffff1673ffffffffffffffffffffffffffffffffffffffff16815260200190815260200160002060008573ffffffffffffffffffffffffffffffffffffffff1673ffffffffffffffffffffffffffffffffffffffff16815260200190815260200160002081905550801561152f578273ffffffffffffffffffffffffffffffffffffffff168473ffffffffffffffffffffffffffffffffffffffff167f8c5be1e5ebec7d5bd14f71427d1e84f3dd0314c0f7b2291e5b200ac8c7c3b925846040516115269190611bfd565b60405180910390a35b50505050565b61154083838361190d565b600073ffffffffffffffffffffffffffffffffffffffff168373ffffffffffffffffffffffffffffffffffffffff16141580156115aa5750600073ffffffffffffffffffffffffffffffffffffffff168273ffffffffffffffffffffffffffffffffffffffff1614155b156115ba576115b98282611187565b5b505050565b600080602060008451602086016000885af1806115e2576040513d6000823e3d81fd5b3d9250600051915050600082146115fd576001811415611619565b60008473ffffffffffffffffffffffffffffffffffffffff163b145b1561165b57836040517f5274afe70000000000000000000000000000000000000000000000000000000081526004016116529190612444565b60405180910390fd5b50505050565b600080604051806040016040528085815260200184815250905073__$75f79a42d9bcbdbb69ad79ebd80f556f39$__63561558fe826040518263ffffffff1660e01b81526004016116b291906125f6565b602060405180830381865af41580156116cf573d6000803e3d6000fd5b505050506040513d601f19601f820116820180604052508101906116f39190612626565b60001b91505092915050565b600060065490507f0000000000000000000000000000000000000000000000000000000000000000811061175f576040517fb48f2cf800000000000000000000000000000000000000000000000000000000815260040160405180910390fd5b6006600081548092919061177290612653565b91905055506000829050600082905060005b7f000000000000000000000000000000000000000000000000000000000000000081101561186b5760006002836117bb91906126ca565b036118185782600882815481106117d5576117d46121ac565b5b90600052602060002001819055506118118360001c600783815481106117fe576117fd6121ac565b5b906000526020600020015460001c611661565b9250611849565b6118466008828154811061182f5761182e6121ac565b5b906000526020600020015460001c8460001c611661565b92505b60028261185691906126fb565b9150808061186390612653565b915050611784565b506000600554905082600581905550600160096000600554815260200190815260200160002060006101000a81548160ff02191690831515021790555084847f9a40fd7d16dbc76bf1972bae17064a13dea280d9723bc57a2a89a516d45757f560405160405180910390a3600554817f26df13263ccd588bd14d17b939ae977c1d51960da437d7eb886d1cfb6f3d068260405160405180910390a35050505050565b600073ffffffffffffffffffffffffffffffffffffffff168373ffffffffffffffffffffffffffffffffffffffff160361195f578060026000828254611953919061272c565b92505081905550611a32565b60008060008573ffffffffffffffffffffffffffffffffffffffff1673ffffffffffffffffffffffffffffffffffffffff168152602001908152602001600020549050818110156119eb578381836040517fe450d38c0000000000000000000000000000000000000000000000000000000081526004016119e29392919061240d565b60405180910390fd5b8181036000808673ffffffffffffffffffffffffffffffffffffffff1673ffffffffffffffffffffffffffffffffffffffff16815260200190815260200160002081905550505b600073ffffffffffffffffffffffffffffffffffffffff168273ffffffffffffffffffffffffffffffffffffffff1603611a7b5780600260008282540392505081905550611ac8565b806000808473ffffffffffffffffffffffffffffffffffffffff1673ffffffffffffffffffffffffffffffffffffffff168152602001908152602001600020600082825401925050819055505b8173ffffffffffffffffffffffffffffffffffffffff168373ffffffffffffffffffffffffffffffffffffffff167fddf252ad1be2c89b69c2b068fc378daa952ba7f163c4a11628f55a4df523b3ef83604051611b259190611bfd565b60405180910390a3505050565b600081519050919050565b600082825260208201905092915050565b60005b83811015611b6c578082015181840152602081019050611b51565b60008484015250505050565b6000601f19601f8301169050919050565b6000611b9482611b32565b611b9e8185611b3d565b9350611bae818560208601611b4e565b611bb781611b78565b840191505092915050565b60006020820190508181036000830152611bdc8184611b89565b905092915050565b6000819050919050565b611bf781611be4565b82525050565b6000602082019050611c126000830184611bee565b92915050565b600080fd5b600073ffffffffffffffffffffffffffffffffffffffff82169050919050565b6000611c4882611c1d565b9050919050565b611c5881611c3d565b8114611c6357600080fd5b50565b600081359050611c7581611c4f565b92915050565b611c8481611be4565b8114611c8f57600080fd5b50565b600081359050611ca181611c7b565b92915050565b60008060408385031215611cbe57611cbd611c18565b5b6000611ccc85828601611c66565b9250506020611cdd85828601611c92565b9150509250929050565b60008115159050919050565b611cfc81611ce7565b82525050565b6000602082019050611d176000830184611cf3565b92915050565b600080600060608486031215611d3657611d35611c18565b5b6000611d4486828701611c66565b9350506020611d5586828701611c66565b9250506040611d6686828701611c92565b9150509250925092565b6000819050919050565b6000611d95611d90611d8b84611c1d565b611d70565b611c1d565b9050919050565b6000611da782611d7a565b9050919050565b6000611db982611d9c565b9050919050565b611dc981611dae565b82525050565b6000602082019050611de46000830184611dc0565b92915050565b600060208284031215611e0057611dff611c18565b5b6000611e0e84828501611c92565b91505092915050565b600060ff82169050919050565b611e2d81611e17565b82525050565b6000602082019050611e486000830184611e24565b92915050565b6000819050919050565b611e6181611e4e565b8114611e6c57600080fd5b50565b600081359050611e7e81611e58565b92915050565b600060208284031215611e9a57611e99611c18565b5b6000611ea884828501611e6f565b91505092915050565b611eba81611e4e565b82525050565b6000602082019050611ed56000830184611eb1565b92915050565b600060208284031215611ef157611ef0611c18565b5b6000611eff84828501611c66565b91505092915050565b6000611f1382611d9c565b9050919050565b611f2381611f08565b82525050565b6000602082019050611f3e6000830184611f1a565b92915050565b600080fd5b600081905082602060020282011115611f6557611f64611f44565b5b92915050565b600081905082604060020282011115611f8757611f86611f44565b5b92915050565b6000806000806000806000610180888a031215611fad57611fac611c18565b5b6000611fbb8a828b01611f49565b9750506040611fcc8a828b01611f6b565b96505060c0611fdd8a828b01611f49565b955050610100611fef8a828b01611e6f565b9450506101206120018a828b01611e6f565b9350506101406120138a828b01611c66565b9250506101606120258a828b01611c92565b91505092959891949750929550565b6000806040838503121561204b5761204a611c18565b5b600061205985828601611c66565b925050602061206a85828601611c66565b9150509250929050565b7f4e487b7100000000000000000000000000000000000000000000000000000000600052602260045260246000fd5b600060028204905060018216806120bb57607f821691505b6020821081036120ce576120cd612074565b5b50919050565b7f416d6f756e74206d757374203e20300000000000000000000000000000000000600082015250565b600061210a600f83611b3d565b9150612115826120d4565b602082019050919050565b60006020820190508181036000830152612139816120fd565b9050919050565b7f496e76616c6964206c6576656c00000000000000000000000000000000000000600082015250565b6000612176600d83611b3d565b915061218182612140565b602082019050919050565b600060208201905081810360008301526121a581612169565b9050919050565b7f4e487b7100000000000000000000000000000000000000000000000000000000600052603260045260246000fd5b82818337505050565b6121f0604083836121db565b5050565b600060029050919050565b600081905092915050565b6000819050919050565b612220604083836121db565b5050565b60006122308383612214565b60408301905092915050565b600082905092915050565b6000604082019050919050565b61225d816121f4565b61226781846121ff565b92506122728261220a565b8060005b838110156122ab57612288828461223c565b6122928782612224565b965061229d83612247565b925050600181019050612276565b505050505050565b600060049050919050565b600081905092915050565b6000819050919050565b6122dc81611be4565b82525050565b60006122ee83836122d3565b60208301905092915050565b6000602082019050919050565b612310816122b3565b61231a81846122be565b9250612325826122c9565b8060005b8381101561235657815161233d87826122e2565b9650612348836122fa565b925050600181019050612329565b505050505050565b60006101808201905061237460008301876121e4565b6123816040830186612254565b61238e60c08301856121e4565b61239c610100830184612307565b95945050505050565b6123ae81611ce7565b81146123b957600080fd5b50565b6000815190506123cb816123a5565b92915050565b6000602082840312156123e7576123e6611c18565b5b60006123f5848285016123bc565b91505092915050565b61240781611c3d565b82525050565b600060608201905061242260008301866123fe565b61242f6020830185611bee565b61243c6040830184611bee565b949350505050565b600060208201905061245960008301846123fe565b92915050565b600060408201905061247460008301856123fe565b6124816020830184611bee565b9392505050565b7f4e487b7100000000000000000000000000000000000000000000000000000000600052601160045260246000fd5b60006124c282611be4565b91506124cd83611be4565b92508282039050818111156124e5576124e4612488565b5b92915050565b60006040820190506125006000830185611bee565b61250d6020830184611bee565b9392505050565b600060608201905061252960008301866123fe565b61253660208301856123fe565b6125436040830184611bee565b949350505050565b600060029050919050565b600081905092915050565b6000819050919050565b61257481611be4565b82525050565b6000612586838361256b565b60208301905092915050565b6000602082019050919050565b6125a88161254b565b6125b28184612556565b92506125bd82612561565b8060005b838110156125ee5781516125d5878261257a565b96506125e083612592565b9250506001810190506125c1565b505050505050565b600060408201905061260b600083018461259f565b92915050565b60008151905061262081611c7b565b92915050565b60006020828403121561263c5761263b611c18565b5b600061264a84828501612611565b91505092915050565b600061265e82611be4565b91507fffffffffffffffffffffffffffffffffffffffffffffffffffffffffffffffff82036126905761268f612488565b5b600182019050919050565b7f4e487b7100000000000000000000000000000000000000000000000000000000600052601260045260246000fd5b60006126d582611be4565b91506126e083611be4565b9250826126f0576126ef61269b565b5b828206905092915050565b600061270682611be4565b915061271183611be4565b9250826127215761272061269b565b5b828204905092915050565b600061273782611be4565b915061274283611be4565b925082820190508082111561275a57612759612488565b5b9291505056fea2646970667358221220e3443ebcc74ec0413232146a801de9f24dba7b915fb7d900b5f52af39ce4511264736f6c63430008140033",
  "linkReferences": {
    "poseidon-solidity/PoseidonT3.sol": {
      "PoseidonT3": [
        {
          "length": 20,
          "start": 1036
        },
        {
          "length": 20,
          "start": 9978
        }
      ]
    }
  },
  "deployedLinkReferences": {
    "poseidon-solidity/PoseidonT3.sol": {
      "PoseidonT3": [
        {
          "length": 20,
          "start": 5757
        }
      ]
    }
  }
}